{
  "contractName": "Trade",
  "abi": [
    {
      "inputs": [
        {
          "internalType": "address",
          "name": "buyer_add",
          "type": "address"
        }
      ],
      "payable": true,
      "stateMutability": "payable",
      "type": "constructor"
    },
    {
      "anonymous": false,
      "inputs": [
        {
          "indexed": false,
          "internalType": "address",
          "name": "buyer",
          "type": "address"
        },
        {
          "indexed": false,
          "internalType": "uint256",
          "name": "invoice_no",
          "type": "uint256"
        },
        {
          "indexed": false,
          "internalType": "uint256",
          "name": "order_no",
          "type": "uint256"
        },
        {
          "indexed": false,
          "internalType": "uint256",
          "name": "delivery_date",
          "type": "uint256"
        },
        {
          "indexed": false,
          "internalType": "address",
          "name": "courier",
          "type": "address"
        }
      ],
      "name": "InvoiceSent",
      "type": "event"
    },
    {
      "anonymous": false,
      "inputs": [
        {
          "indexed": false,
          "internalType": "address",
          "name": "buyer",
          "type": "address"
        },
        {
          "indexed": false,
          "internalType": "uint256",
          "name": "invoice_no",
          "type": "uint256"
        },
        {
          "indexed": false,
          "internalType": "uint256",
          "name": "order_no",
          "type": "uint256"
        },
        {
          "indexed": false,
          "internalType": "uint256",
          "name": "date",
          "type": "uint256"
        },
        {
          "indexed": false,
          "internalType": "address",
          "name": "courier",
          "type": "address"
        }
      ],
      "name": "OrderDelivered",
      "type": "event"
    },
    {
      "anonymous": false,
      "inputs": [
        {
          "indexed": false,
          "internalType": "address",
          "name": "buyer",
          "type": "address"
        },
        {
          "indexed": false,
          "internalType": "string",
          "name": "product",
          "type": "string"
        },
        {
          "indexed": false,
          "internalType": "uint256",
          "name": "quantity",
          "type": "uint256"
        },
        {
          "indexed": false,
          "internalType": "string",
          "name": "location",
          "type": "string"
        },
        {
          "indexed": false,
          "internalType": "uint256",
          "name": "order_no",
          "type": "uint256"
        }
      ],
      "name": "OrderSent",
      "type": "event"
    },
    {
      "anonymous": false,
      "inputs": [
        {
          "indexed": false,
          "internalType": "address",
          "name": "buyer",
          "type": "address"
        },
        {
          "indexed": false,
          "internalType": "uint256",
          "name": "order_no",
          "type": "uint256"
        },
        {
          "indexed": false,
          "internalType": "uint256",
          "name": "amount",
          "type": "uint256"
        },
        {
          "indexed": false,
          "internalType": "uint256",
          "name": "phone",
          "type": "uint256"
        },
        {
          "indexed": false,
          "internalType": "uint256",
          "name": "time_stamp",
          "type": "uint256"
        }
      ],
      "name": "Payment",
      "type": "event"
    },
    {
      "anonymous": false,
      "inputs": [
        {
          "indexed": false,
          "internalType": "address",
          "name": "buyer",
          "type": "address"
        },
        {
          "indexed": false,
          "internalType": "uint256",
          "name": "order_no",
          "type": "uint256"
        },
        {
          "indexed": false,
          "internalType": "uint256",
          "name": "product_price",
          "type": "uint256"
        },
        {
          "indexed": false,
          "internalType": "uint256",
          "name": "delivery_charge",
          "type": "uint256"
        },
        {
          "indexed": false,
          "internalType": "uint256",
          "name": "delivery_date",
          "type": "uint256"
        }
      ],
      "name": "PriceSent",
      "type": "event"
    },
    {
      "constant": false,
      "inputs": [
        {
          "internalType": "string",
          "name": "product",
          "type": "string"
        },
        {
          "internalType": "uint256",
          "name": "quantity",
          "type": "uint256"
        },
        {
          "internalType": "string",
          "name": "location",
          "type": "string"
        }
      ],
      "name": "sendOrder",
      "outputs": [],
      "payable": true,
      "stateMutability": "payable",
      "type": "function"
    },
    {
      "constant": true,
      "inputs": [
        {
          "internalType": "uint256",
          "name": "seq_no",
          "type": "uint256"
        }
      ],
      "name": "query",
      "outputs": [
        {
          "internalType": "address",
          "name": "",
          "type": "address"
        },
        {
          "internalType": "string",
          "name": "",
          "type": "string"
        },
        {
          "internalType": "uint256",
          "name": "",
          "type": "uint256"
        },
        {
          "internalType": "string",
          "name": "",
          "type": "string"
        },
        {
          "internalType": "uint256",
          "name": "",
          "type": "uint256"
        },
        {
          "internalType": "uint256",
          "name": "",
          "type": "uint256"
        },
        {
          "internalType": "uint256",
          "name": "",
          "type": "uint256"
        }
      ],
      "payable": false,
      "stateMutability": "view",
      "type": "function"
    },
    {
      "constant": false,
      "inputs": [
        {
          "internalType": "uint256",
          "name": "order_no",
          "type": "uint256"
        },
        {
          "internalType": "uint256",
          "name": "price",
          "type": "uint256"
        },
        {
          "internalType": "uint256",
          "name": "delivery_charge",
          "type": "uint256"
        },
        {
          "internalType": "uint256",
          "name": "delivery_date",
          "type": "uint256"
        }
      ],
      "name": "sendPrice",
      "outputs": [],
      "payable": true,
      "stateMutability": "payable",
      "type": "function"
    },
    {
      "constant": false,
      "inputs": [
        {
          "internalType": "uint256",
          "name": "order_no",
          "type": "uint256"
        },
        {
          "internalType": "uint256",
          "name": "phone_no",
          "type": "uint256"
        }
      ],
      "name": "sendPayment",
      "outputs": [],
      "payable": true,
      "stateMutability": "payable",
      "type": "function"
    },
    {
      "constant": false,
      "inputs": [
        {
          "internalType": "uint256",
          "name": "order_no",
          "type": "uint256"
        },
        {
          "internalType": "uint256",
          "name": "delivery_date",
          "type": "uint256"
        },
        {
          "internalType": "address payable",
          "name": "courier",
          "type": "address"
        }
      ],
      "name": "sendInvoice",
      "outputs": [],
      "payable": true,
      "stateMutability": "payable",
      "type": "function"
    },
    {
      "constant": true,
      "inputs": [
        {
          "internalType": "uint256",
          "name": "invoice_no",
          "type": "uint256"
        }
      ],
      "name": "getInvoice",
      "outputs": [
        {
          "internalType": "address",
          "name": "buyer",
          "type": "address"
        },
        {
          "internalType": "uint256",
          "name": "order_no",
          "type": "uint256"
        },
        {
          "internalType": "uint256",
          "name": "delivery_date",
          "type": "uint256"
        },
        {
          "internalType": "address",
          "name": "courier",
          "type": "address"
        }
      ],
      "payable": false,
      "stateMutability": "view",
      "type": "function"
    },
    {
      "constant": false,
      "inputs": [
        {
          "internalType": "uint256",
          "name": "invoice_no",
          "type": "uint256"
        },
        {
          "internalType": "uint256",
          "name": "time",
          "type": "uint256"
        }
      ],
      "name": "delivery",
      "outputs": [],
      "payable": true,
      "stateMutability": "payable",
      "type": "function"
    }
  ],
  "bytecode": "0x60806040526040516118073803806118078339818101604052602081101561002657600080fd5b8101908080519060200190929190505050336000806101000a81548173ffffffffffffffffffffffffffffffffffffffff021916908373ffffffffffffffffffffffffffffffffffffffff16021790555080600160006101000a81548173ffffffffffffffffffffffffffffffffffffffff021916908373ffffffffffffffffffffffffffffffffffffffff1602179055505061173f806100c86000396000f3fe6080604052600436106100705760003560e01c80636ca1608b1161004e5780636ca1608b146101b5578063afdac68d146101ed578063d4f125971461035c578063f78aed9f146103b457610070565b80630252d9be146100755780632068eee4146100c15780633a23cc0a146100f9575b600080fd5b6100bf6004803603608081101561008b57600080fd5b8101908080359060200190929190803590602001909291908035906020019092919080359060200190929190505050610510565b005b6100f7600480360360408110156100d757600080fd5b8101908080359060200190929190803590602001909291905050506106ca565b005b34801561010557600080fd5b506101326004803603602081101561011c57600080fd5b810190808035906020019092919050505061086d565b604051808573ffffffffffffffffffffffffffffffffffffffff1673ffffffffffffffffffffffffffffffffffffffff1681526020018481526020018381526020018273ffffffffffffffffffffffffffffffffffffffff1673ffffffffffffffffffffffffffffffffffffffff16815260200194505050505060405180910390f35b6101eb600480360360408110156101cb57600080fd5b81019080803590602001909291908035906020019092919050505061093e565b005b3480156101f957600080fd5b506102266004803603602081101561021057600080fd5b8101908080359060200190929190505050610bdf565b604051808873ffffffffffffffffffffffffffffffffffffffff1673ffffffffffffffffffffffffffffffffffffffff1681526020018060200187815260200180602001868152602001858152602001848152602001838103835289818151815260200191508051906020019080838360005b838110156102b4578082015181840152602081019050610299565b50505050905090810190601f1680156102e15780820380516001836020036101000a031916815260200191505b50838103825287818151815260200191508051906020019080838360005b8381101561031a5780820151818401526020810190506102ff565b50505050905090810190601f1680156103475780820380516001836020036101000a031916815260200191505b50995050505050505050505060405180910390f35b6103b26004803603606081101561037257600080fd5b810190808035906020019092919080359060200190929190803573ffffffffffffffffffffffffffffffffffffffff169060200190929190505050610f46565b005b61050e600480360360608110156103ca57600080fd5b81019080803590602001906401000000008111156103e757600080fd5b8201836020820111156103f957600080fd5b8035906020019184600183028401116401000000008311171561041b57600080fd5b91908080601f016020809104026020016040519081016040528093929190818152602001838380828437600081840152601f19601f820116905080830192505050505050509192919290803590602001909291908035906020019064010000000081111561048857600080fd5b82018360208201111561049a57600080fd5b803590602001918460018302840111640100000000831117156104bc57600080fd5b91908080601f016020809104026020016040519081016040528093929190818152602001838380828437600081840152601f19601f820116905080830192505050505050509192919290505050611198565b005b6000809054906101000a900473ffffffffffffffffffffffffffffffffffffffff1673ffffffffffffffffffffffffffffffffffffffff163373ffffffffffffffffffffffffffffffffffffffff161461056957600080fd5b60026000858152602001908152602001600020600f0160009054906101000a900460ff1661059657600080fd5b82600260008681526020019081526020016000206006018190555081600260008681526020019081526020016000206008016001018190555060016002600086815260200190815260200160002060080160060160006101000a81548160ff0219169083151502179055508060026000868152602001908152602001600020600801600401819055507ff6279bf548f739df045cd5d45d5d1053b55b6607637d3344516a77e42e5591be600160009054906101000a900473ffffffffffffffffffffffffffffffffffffffff1685858585604051808673ffffffffffffffffffffffffffffffffffffffff1673ffffffffffffffffffffffffffffffffffffffff1681526020018581526020018481526020018381526020018281526020019550505050505060405180910390a150505050565b600160009054906101000a900473ffffffffffffffffffffffffffffffffffffffff1673ffffffffffffffffffffffffffffffffffffffff163373ffffffffffffffffffffffffffffffffffffffff161461072457600080fd5b60026000838152602001908152602001600020600f0160009054906101000a900460ff1661075157600080fd5b3460026000848152602001908152602001600020600801600101546002600085815260200190815260200160002060060154011461078e57600080fd5b3460026000848152602001908152602001600020600701819055508060026000848152602001908152602001600020600501819055507f9620cef3a3d39af2426e8362381d59ca9ea0f5ae59621986a897d764f66f953e600160009054906101000a900473ffffffffffffffffffffffffffffffffffffffff1683348442604051808673ffffffffffffffffffffffffffffffffffffffff1673ffffffffffffffffffffffffffffffffffffffff1681526020018581526020018481526020018381526020018281526020019550505050505060405180910390a15050565b6000806000806003600086815260200190815260200160002060020160009054906101000a900460ff166108a057600080fd5b6000600360008781526020019081526020016000209050600060026000836000015481526020019081526020016000209050600160009054906101000a900473ffffffffffffffffffffffffffffffffffffffff16816004015482600801600501548360080160000160009054906101000a900473ffffffffffffffffffffffffffffffffffffffff16809050955095509550955050509193509193565b6003600083815260200190815260200160002060020160009054906101000a900460ff1661096b57600080fd5b60006003600084815260200190815260200160002090506000600260008360000154815260200190815260200160002090503373ffffffffffffffffffffffffffffffffffffffff168160080160000160009054906101000a900473ffffffffffffffffffffffffffffffffffffffff1673ffffffffffffffffffffffffffffffffffffffff16146109fc57600080fd5b7f587b8bd23b43f29f1f6f1d2d4306080dbcc8f78f1ec918c6812b33001fefc990600160009054906101000a900473ffffffffffffffffffffffffffffffffffffffff16858360040154868560080160000160009054906101000a900473ffffffffffffffffffffffffffffffffffffffff16604051808673ffffffffffffffffffffffffffffffffffffffff1673ffffffffffffffffffffffffffffffffffffffff1681526020018581526020018481526020018381526020018273ffffffffffffffffffffffffffffffffffffffff1673ffffffffffffffffffffffffffffffffffffffff1681526020019550505050505060405180910390a16000809054906101000a900473ffffffffffffffffffffffffffffffffffffffff1673ffffffffffffffffffffffffffffffffffffffff166108fc82600701549081150290604051600060405180830381858888f19350505050158015610b63573d6000803e3d6000fd5b508060080160000160009054906101000a900473ffffffffffffffffffffffffffffffffffffffff1673ffffffffffffffffffffffffffffffffffffffff166108fc82600801600201549081150290604051600060405180830381858888f19350505050158015610bd8573d6000803e3d6000fd5b5050505050565b6000606060006060600080600060026000898152602001908152602001600020600f0160009054906101000a900460ff16610c1957600080fd5b610c2161159f565b600260008a815260200190815260200160002060405180610140016040529081600082018054600181600116156101000203166002900480601f016020809104026020016040519081016040528092919081815260200182805460018160011615610100020316600290048015610cd95780601f10610cae57610100808354040283529160200191610cd9565b820191906000526020600020905b815481529060010190602001808311610cbc57829003601f168201915b5050505050815260200160018201548152602001600282018054600181600116156101000203166002900480601f016020809104026020016040519081016040528092919081815260200182805460018160011615610100020316600290048015610d855780601f10610d5a57610100808354040283529160200191610d85565b820191906000526020600020905b815481529060010190602001808311610d6857829003601f168201915b505050505081526020016003820154815260200160048201548152602001600582015481526020016006820154815260200160078201548152602001600882016040518060e00160405290816000820160009054906101000a900473ffffffffffffffffffffffffffffffffffffffff1673ffffffffffffffffffffffffffffffffffffffff1673ffffffffffffffffffffffffffffffffffffffff16815260200160018201548152602001600282015481526020016003820160009054906101000a900473ffffffffffffffffffffffffffffffffffffffff1673ffffffffffffffffffffffffffffffffffffffff1673ffffffffffffffffffffffffffffffffffffffff16815260200160048201548152602001600582015481526020016006820160009054906101000a900460ff1615151515815250508152602001600f820160009054906101000a900460ff1615151515815250509050600160009054906101000a900473ffffffffffffffffffffffffffffffffffffffff168160000151826020015183604001518460c00151856101000151602001518660e00151859550839350975097509750975097509750975050919395979092949650565b6000809054906101000a900473ffffffffffffffffffffffffffffffffffffffff1673ffffffffffffffffffffffffffffffffffffffff163373ffffffffffffffffffffffffffffffffffffffff1614610f9f57600080fd5b60026000848152602001908152602001600020600f0160009054906101000a900460ff16610fcc57600080fd5b6005600081548092919060010191905055506040518060600160405280848152602001600554815260200160011515815250600360006005548152602001908152602001600020600082015181600001556020820151816001015560408201518160020160006101000a81548160ff021916908315150217905550905050816002600085815260200190815260200160002060080160050181905550806002600085815260200190815260200160002060080160000160006101000a81548173ffffffffffffffffffffffffffffffffffffffff021916908373ffffffffffffffffffffffffffffffffffffffff1602179055507fbc1c01dc0d1e366f76a22e7db8af8028033bd0a521feaf529046a6bc413ce0f0600160009054906101000a900473ffffffffffffffffffffffffffffffffffffffff16600554858585604051808673ffffffffffffffffffffffffffffffffffffffff1673ffffffffffffffffffffffffffffffffffffffff1681526020018581526020018481526020018381526020018273ffffffffffffffffffffffffffffffffffffffff1673ffffffffffffffffffffffffffffffffffffffff1681526020019550505050505060405180910390a1505050565b600160009054906101000a900473ffffffffffffffffffffffffffffffffffffffff1673ffffffffffffffffffffffffffffffffffffffff163373ffffffffffffffffffffffffffffffffffffffff16146111f257600080fd5b6004600081548092919060010191905055506040518061014001604052808481526020018381526020018281526020016004548152602001600081526020016000815260200160008152602001600081526020016040518060e00160405280600073ffffffffffffffffffffffffffffffffffffffff1681526020016000815260200160008152602001600073ffffffffffffffffffffffffffffffffffffffff16815260200160008152602001600081526020016000151581525081526020016001151581525060026000600454815260200190815260200160002060008201518160000190805190602001906112eb9291906115fa565b506020820151816001015560408201518160020190805190602001906113129291906115fa565b50606082015181600301556080820151816004015560a0820151816005015560c0820151816006015560e082015181600701556101008201518160080160008201518160000160006101000a81548173ffffffffffffffffffffffffffffffffffffffff021916908373ffffffffffffffffffffffffffffffffffffffff160217905550602082015181600101556040820151816002015560608201518160030160006101000a81548173ffffffffffffffffffffffffffffffffffffffff021916908373ffffffffffffffffffffffffffffffffffffffff1602179055506080820151816004015560a0820151816005015560c08201518160060160006101000a81548160ff021916908315150217905550505061012082015181600f0160006101000a81548160ff0219169083151502179055509050507f09164995b9d36420f3eebab5a4f41d6646a05b73fa3f8a959718ee8be3d1b76b33848484600454604051808673ffffffffffffffffffffffffffffffffffffffff1673ffffffffffffffffffffffffffffffffffffffff1681526020018060200185815260200180602001848152602001838103835287818151815260200191508051906020019080838360005b838110156114f55780820151818401526020810190506114da565b50505050905090810190601f1680156115225780820380516001836020036101000a031916815260200191505b50838103825285818151815260200191508051906020019080838360005b8381101561155b578082015181840152602081019050611540565b50505050905090810190601f1680156115885780820380516001836020036101000a031916815260200191505b5097505050505050505060405180910390a1505050565b60405180610140016040528060608152602001600081526020016060815260200160008152602001600081526020016000815260200160008152602001600081526020016115eb61167a565b81526020016000151581525090565b828054600181600116156101000203166002900490600052602060002090601f016020900481019282601f1061163b57805160ff1916838001178555611669565b82800160010185558215611669579182015b8281111561166857825182559160200191906001019061164d565b5b50905061167691906116e5565b5090565b6040518060e00160405280600073ffffffffffffffffffffffffffffffffffffffff1681526020016000815260200160008152602001600073ffffffffffffffffffffffffffffffffffffffff16815260200160008152602001600081526020016000151581525090565b61170791905b808211156117035760008160009055506001016116eb565b5090565b9056fea265627a7a723158201fdd94c29f5e9e382b0bd94e0a43e46ee431c1beef076706151deb2dc2a1fda864736f6c63430005100032",
  "source": "// SPDX-License-Identifier: GPL-3.0\npragma solidity ^0.5.1;\n\ncontract Trade\n{\n    address payable owner;\n    address buyer_address;\n    \n    // contract owner specific modifier\n    modifier onlyOwner ()\n    {\n        require(msg.sender == owner);\n        _;\n    }\n\n    // buyer specific modifier \n    modifier onlyBuyer()\n    {\n        require(msg.sender == buyer_address);\n        _;\n    }\n\n    // constructor to set the owner of the contract\n    constructor (address buyer_add) public payable {\n        owner = msg.sender;\n        buyer_address = buyer_add;\n    }\n    \n    // structure of the buyer\n    struct Buyer\n    {\n        address addr;\n        string name;\n        bool init;\n    }\n    \n    // structure of the current shipment\n    struct Shipment\n    {\n        address payable courier;\n        uint price;\n        uint payment;\n        address payer;\n        uint date;\n        uint delivery_date;\n        bool init;\n    }\n    \n    // structure of a particular order\n    struct Order\n    {\n        string product;\n        uint quantity;\n        string location;\n        uint seq_no;\n        uint number;\n        uint phone;\n        uint price;\n        uint payment;\n        \n        Shipment shipment;\n        bool init;\n    }\n    \n    // structure of the invoice\n    struct Invoice\n    {\n        uint order_no;\n        uint number;\n        bool init;\n    }\n    \n    // store orders mapping\n    mapping (uint => Order) orders;\n    \n    // store invoices mapping\n    mapping (uint => Invoice) invoices;\n    \n    // Events that depicts the flow in a smart contract\n    uint order_seq;\n    uint invoice_seq;\n    \n    event OrderSent (address buyer, string product, uint quantity, string location, uint order_no);\n    event PriceSent (address buyer, uint order_no, uint product_price, uint delivery_charge, uint delivery_date);\n    event Payment (address buyer, uint order_no, uint amount, uint phone, uint time_stamp);\n    event InvoiceSent (address buyer, uint invoice_no, uint order_no, uint delivery_date, address courier);\n    event OrderDelivered (address buyer, uint invoice_no, uint order_no, uint date, address courier);\n\n    // Buyer request order to seller\n    function sendOrder(string memory product, uint quantity, string memory location) public onlyBuyer payable \n    {\n\n        order_seq++;\n        \n        orders[order_seq] = Order(product, quantity, location, order_seq, 0, 0, 0, 0, Shipment(address(0), 0, 0, address(0), 0, 0, false), true);\n\n        emit OrderSent(msg.sender, product, quantity, location, order_seq);\n    }\n\n    // line up orders\n    function query(uint seq_no) public view returns (address, string memory, uint, string memory, uint, uint, uint)\n    {\n        require(orders[seq_no].init);\n        \n        Order memory orderStruct;\n        orderStruct = orders[seq_no];\n        \n        return (buyer_address, orderStruct.product, orderStruct.quantity, orderStruct.location, orderStruct.price, orderStruct.shipment.price, orderStruct.payment);\n    }\n    \n    // seller sends the details of price and delivery_charges for the product\n    function sendPrice(uint order_no, uint price, uint delivery_charge, uint delivery_date) public onlyOwner payable\n    {\n        require(orders[order_no].init);\n\n        orders[order_no].price = price;\n        orders[order_no].shipment.price = delivery_charge;\n        orders[order_no].shipment.init = true;\n        orders[order_no].shipment.date = delivery_date;\n\n        emit PriceSent(buyer_address, order_no, price, delivery_charge, delivery_date);\n    }\n\n    // buyer pays the price of the product and delivery charge\n    function sendPayment(uint order_no, uint phone_no) public onlyBuyer payable\n    {\n        require(orders[order_no].init);\n        require(orders[order_no].price + orders[order_no].shipment.price == msg.value);\n\n        orders[order_no].payment = msg.value;\n        orders[order_no].phone = phone_no;\n\n        emit Payment(buyer_address, order_no, msg.value, phone_no, now);\n    }\n\n    // seller sends the invoice to the carrier\n    function sendInvoice(uint order_no, uint delivery_date, address payable courier) public onlyOwner payable\n    {\n        require(orders[order_no].init);\n        invoice_seq++;\n\n        invoices[invoice_seq] = Invoice(order_no, invoice_seq, true);\n\n        orders[order_no].shipment.delivery_date = delivery_date;\n        orders[order_no].shipment.courier = courier;\n\n        emit InvoiceSent(buyer_address, invoice_seq, order_no, delivery_date, courier);\n    }\n\n    // fetch the invoice that is sent by the seller\n    function getInvoice(uint invoice_no) view public returns (address buyer, uint order_no, uint delivery_date, address courier)\n    {\n        require(invoices[invoice_no].init);\n\n        Invoice storage _invoice = invoices[invoice_no];\n        Order storage _order = orders[_invoice.order_no];\n\n        return (buyer_address, _order.number, _order.shipment.delivery_date, _order.shipment.courier);\n    }\n    \n    // confirms item is delivered and payout seller and courier\n    function delivery(uint invoice_no, uint time) public payable\n    {\n        require(invoices[invoice_no].init);\n\n        Invoice storage _invoice = invoices[invoice_no];\n        Order storage _order = orders[_invoice.order_no];\n\n        require(_order.shipment.courier == msg.sender);\n\n        emit OrderDelivered(buyer_address, invoice_no, _order.number, time, _order.shipment.courier);\n\n        // payout amount to the seller\n        owner.transfer(_order.payment);\n\n        // payout delivery charges to the courier\n        _order.shipment.courier.transfer(_order.shipment.payment);\n    }   \n}",
  "sourcePath": "/home/nitish/dev/Normal-Projects/supply-chain-dapp/contracts/Trade.sol",
  "compiler": {
    "name": "solc",
    "version": "0.5.16+commit.9c3226ce.Emscripten.clang"
  },
  "schemaVersion": "3.3.2",
  "updatedAt": "2021-01-15T15:16:13.205Z",
  "networkType": "ethereum",
  "devdoc": {
    "methods": {}
  },
  "userdoc": {
    "methods": {}
  }
}